{
  "_format": "hh-sol-artifact-1",
  "contractName": "WeiGold",
  "sourceName": "contracts/WeiGoldV5.sol",
  "abi": [
    {
      "inputs": [],
      "stateMutability": "nonpayable",
      "type": "constructor"
    },
    {
      "anonymous": false,
      "inputs": [
        {
          "indexed": true,
          "internalType": "uint256",
          "name": "date",
          "type": "uint256"
        },
        {
          "indexed": true,
          "internalType": "address",
          "name": "from",
          "type": "address"
        },
        {
          "indexed": false,
          "internalType": "uint256",
          "name": "valueChangeEventWenjs",
          "type": "uint256"
        },
        {
          "indexed": false,
          "internalType": "int256",
          "name": "feeChange",
          "type": "int256"
        }
      ],
      "name": "contractStateChangeEvent",
      "type": "event"
    },
    {
      "inputs": [],
      "name": "BuyGold",
      "outputs": [],
      "stateMutability": "payable",
      "type": "function"
    },
    {
      "inputs": [],
      "name": "BuyOil",
      "outputs": [],
      "stateMutability": "payable",
      "type": "function"
    },
    {
      "inputs": [],
      "name": "BuySilver",
      "outputs": [],
      "stateMutability": "payable",
      "type": "function"
    },
    {
      "inputs": [],
      "name": "Owner",
      "outputs": [
        {
          "internalType": "address",
          "name": "",
          "type": "address"
        }
      ],
      "stateMutability": "view",
      "type": "function"
    },
    {
      "inputs": [
        {
          "internalType": "int256",
          "name": "update_Scale_Fee",
          "type": "int256"
        }
      ],
      "name": "OwnerChangeScaleFee",
      "outputs": [],
      "stateMutability": "nonpayable",
      "type": "function"
    },
    {
      "inputs": [
        {
          "internalType": "uint256",
          "name": "update_State",
          "type": "uint256"
        }
      ],
      "name": "OwnerChangeStateServoAutoWithdraw",
      "outputs": [],
      "stateMutability": "nonpayable",
      "type": "function"
    },
    {
      "inputs": [],
      "name": "Scale_Fee",
      "outputs": [
        {
          "internalType": "int256",
          "name": "",
          "type": "int256"
        }
      ],
      "stateMutability": "view",
      "type": "function"
    },
    {
      "inputs": [],
      "name": "State",
      "outputs": [
        {
          "internalType": "uint256",
          "name": "",
          "type": "uint256"
        }
      ],
      "stateMutability": "view",
      "type": "function"
    },
    {
      "inputs": [],
      "name": "getLatest_ETH_USD_Price",
      "outputs": [
        {
          "internalType": "int256",
          "name": "",
          "type": "int256"
        }
      ],
      "stateMutability": "view",
      "type": "function"
    },
    {
      "inputs": [],
      "name": "getLatest_WEI_Gold_Price",
      "outputs": [
        {
          "internalType": "uint256",
          "name": "",
          "type": "uint256"
        }
      ],
      "stateMutability": "view",
      "type": "function"
    },
    {
      "inputs": [],
      "name": "getLatest_WEI_Oil_Price",
      "outputs": [
        {
          "internalType": "uint256",
          "name": "",
          "type": "uint256"
        }
      ],
      "stateMutability": "view",
      "type": "function"
    },
    {
      "inputs": [],
      "name": "getLatest_WEI_Silver_Price",
      "outputs": [
        {
          "internalType": "uint256",
          "name": "",
          "type": "uint256"
        }
      ],
      "stateMutability": "view",
      "type": "function"
    }
  ],
  "bytecode": "0x608060405234801561001057600080fd5b5033600660006101000a81548173ffffffffffffffffffffffffffffffffffffffff021916908373ffffffffffffffffffffffffffffffffffffffff160217905550738a753747a1fa494ec906ce90e9f37563a8af630e6000806101000a81548173ffffffffffffffffffffffffffffffffffffffff021916908373ffffffffffffffffffffffffffffffffffffffff1602179055507381570059a0cb83888f1459ec66aad1ac16730243600160006101000a81548173ffffffffffffffffffffffffffffffffffffffff021916908373ffffffffffffffffffffffffffffffffffffffff160217905550739c1946428f4f159db4889aa6b218833f467e1bfd600260006101000a81548173ffffffffffffffffffffffffffffffffffffffff021916908373ffffffffffffffffffffffffffffffffffffffff160217905550736292aa9a6650ae14fbf974e5029f36f95a1848fd600360006101000a81548173ffffffffffffffffffffffffffffffffffffffff021916908373ffffffffffffffffffffffffffffffffffffffff1602179055506118a0806101b46000396000f3fe6080604052600436106100a75760003560e01c80639ddf6d0c116100645780639ddf6d0c1461016c5780639ef1de4914610195578063b4a99a4e1461019f578063dad31efc146101ca578063f1b6dccd146101f3578063f9183e021461021e576100a7565b8063068e0b2a146100ac57806308256dbb146100d757806320346e0a146100e15780632e3296a11461010c578063400ff9a41461013757806369c1adb914610141575b600080fd5b3480156100b857600080fd5b506100c1610249565b6040516100ce9190610d70565b60405180910390f35b6100df61024f565b005b3480156100ed57600080fd5b506100f661039b565b6040516101039190610da4565b60405180910390f35b34801561011857600080fd5b506101216104a5565b60405161012e9190610da4565b60405180910390f35b61013f6105af565b005b34801561014d57600080fd5b506101566106fb565b6040516101639190610d70565b60405180910390f35b34801561017857600080fd5b50610193600480360381019061018e9190610df0565b6107b7565b005b61019d6109a1565b005b3480156101ab57600080fd5b506101b4610aed565b6040516101c19190610e5e565b60405180910390f35b3480156101d657600080fd5b506101f160048036038101906101ec9190610ea5565b610b13565b005b3480156101ff57600080fd5b50610208610c47565b6040516102159190610da4565b60405180910390f35b34801561022a57600080fd5b50610233610c4d565b6040516102409190610da4565b60405180910390f35b60045481565b600060026005541614610297576040517f08c379a000000000000000000000000000000000000000000000000000000000815260040161028e90610f2f565b60405180910390fd5b60006102a1610c4d565b116102e1576040517f08c379a00000000000000000000000000000000000000000000000000000000081526004016102d890610fc1565b60405180910390fd5b6102e9610c4d565b341461032a576040517f08c379a000000000000000000000000000000000000000000000000000000000815260040161032190611053565b60405180910390fd5b60026005600082825461033d91906110a2565b925050819055503373ffffffffffffffffffffffffffffffffffffffff16437f3b2ad6dc864463b57635e35351fb83e2391e69261d295f1d88e7d2b3a420e4186005546004546040516103919291906110f8565b60405180910390a3565b600080600080600080600160009054906101000a900473ffffffffffffffffffffffffffffffffffffffff1673ffffffffffffffffffffffffffffffffffffffff1663feaf968c6040518163ffffffff1660e01b815260040160a06040518083038186803b15801561040c57600080fd5b505afa158015610420573d6000803e3d6000fd5b505050506040513d601f19601f82011682018060405250810190610444919061118d565b945094509450945094506104566106fb565b6103e86004546103e86104699190611208565b61047391906112cb565b670de0b6b3a7640000866104879190611335565b6104919190611335565b61049b91906112cb565b9550505050505090565b600080600080600080600360009054906101000a900473ffffffffffffffffffffffffffffffffffffffff1673ffffffffffffffffffffffffffffffffffffffff1663feaf968c6040518163ffffffff1660e01b815260040160a06040518083038186803b15801561051657600080fd5b505afa15801561052a573d6000803e3d6000fd5b505050506040513d601f19601f8201168201806040525081019061054e919061118d565b945094509450945094506105606106fb565b6103e86004546103e86105739190611208565b61057d91906112cb565b670de0b6b3a7640000866105919190611335565b61059b9190611335565b6105a591906112cb565b9550505050505090565b6000600460055416146105f7576040517f08c379a00000000000000000000000000000000000000000000000000000000081526004016105ee90611498565b60405180910390fd5b600061060161039b565b11610641576040517f08c379a000000000000000000000000000000000000000000000000000000000815260040161063890610fc1565b60405180910390fd5b61064961039b565b341461068a576040517f08c379a00000000000000000000000000000000000000000000000000000000081526004016106819061152a565b60405180910390fd5b60046005600082825461069d91906110a2565b925050819055503373ffffffffffffffffffffffffffffffffffffffff16437f3b2ad6dc864463b57635e35351fb83e2391e69261d295f1d88e7d2b3a420e4186005546004546040516106f19291906110f8565b60405180910390a3565b60008060008060008060008054906101000a900473ffffffffffffffffffffffffffffffffffffffff1673ffffffffffffffffffffffffffffffffffffffff1663feaf968c6040518163ffffffff1660e01b815260040160a06040518083038186803b15801561076a57600080fd5b505afa15801561077e573d6000803e3d6000fd5b505050506040513d601f19601f820116820180604052508101906107a2919061118d565b94509450945094509450839550505050505090565b600660009054906101000a900473ffffffffffffffffffffffffffffffffffffffff1673ffffffffffffffffffffffffffffffffffffffff163373ffffffffffffffffffffffffffffffffffffffff1614610847576040517f08c379a000000000000000000000000000000000000000000000000000000000815260040161083e906115bc565b60405180910390fd5b80600554141561088c576040517f08c379a00000000000000000000000000000000000000000000000000000000081526004016108839061164e565b60405180910390fd5b600881106108cf576040517f08c379a00000000000000000000000000000000000000000000000000000000081526004016108c6906116ba565b60405180910390fd5b80600581905550600047111561094957600660009054906101000a900473ffffffffffffffffffffffffffffffffffffffff1673ffffffffffffffffffffffffffffffffffffffff166108fc479081150290604051600060405180830381858888f19350505050158015610947573d6000803e3d6000fd5b505b3373ffffffffffffffffffffffffffffffffffffffff16437f3b2ad6dc864463b57635e35351fb83e2391e69261d295f1d88e7d2b3a420e4186005546004546040516109969291906110f8565b60405180910390a350565b6000600160055416146109e9576040517f08c379a00000000000000000000000000000000000000000000000000000000081526004016109e090611726565b60405180910390fd5b60006109f36104a5565b11610a33576040517f08c379a0000000000000000000000000000000000000000000000000000000008152600401610a2a90610fc1565b60405180910390fd5b610a3b6104a5565b3414610a7c576040517f08c379a0000000000000000000000000000000000000000000000000000000008152600401610a73906117b8565b60405180910390fd5b600160056000828254610a8f91906110a2565b925050819055503373ffffffffffffffffffffffffffffffffffffffff16437f3b2ad6dc864463b57635e35351fb83e2391e69261d295f1d88e7d2b3a420e418600554600454604051610ae39291906110f8565b60405180910390a3565b600660009054906101000a900473ffffffffffffffffffffffffffffffffffffffff1681565b600660009054906101000a900473ffffffffffffffffffffffffffffffffffffffff1673ffffffffffffffffffffffffffffffffffffffff163373ffffffffffffffffffffffffffffffffffffffff1614610ba3576040517f08c379a0000000000000000000000000000000000000000000000000000000008152600401610b9a906115bc565b60405180910390fd5b806004541415610be8576040517f08c379a0000000000000000000000000000000000000000000000000000000008152600401610bdf9061184a565b60405180910390fd5b806004819055503373ffffffffffffffffffffffffffffffffffffffff16437f3b2ad6dc864463b57635e35351fb83e2391e69261d295f1d88e7d2b3a420e418600554600454604051610c3c9291906110f8565b60405180910390a350565b60055481565b600080600080600080600260009054906101000a900473ffffffffffffffffffffffffffffffffffffffff1673ffffffffffffffffffffffffffffffffffffffff1663feaf968c6040518163ffffffff1660e01b815260040160a06040518083038186803b158015610cbe57600080fd5b505afa158015610cd2573d6000803e3d6000fd5b505050506040513d601f19601f82011682018060405250810190610cf6919061118d565b94509450945094509450610d086106fb565b6103e86004546103e8610d1b9190611208565b610d2591906112cb565b670de0b6b3a764000086610d399190611335565b610d439190611335565b610d4d91906112cb565b9550505050505090565b6000819050919050565b610d6a81610d57565b82525050565b6000602082019050610d856000830184610d61565b92915050565b6000819050919050565b610d9e81610d8b565b82525050565b6000602082019050610db96000830184610d95565b92915050565b600080fd5b610dcd81610d8b565b8114610dd857600080fd5b50565b600081359050610dea81610dc4565b92915050565b600060208284031215610e0657610e05610dbf565b5b6000610e1484828501610ddb565b91505092915050565b600073ffffffffffffffffffffffffffffffffffffffff82169050919050565b6000610e4882610e1d565b9050919050565b610e5881610e3d565b82525050565b6000602082019050610e736000830184610e4f565b92915050565b610e8281610d57565b8114610e8d57600080fd5b50565b600081359050610e9f81610e79565b92915050565b600060208284031215610ebb57610eba610dbf565b5b6000610ec984828501610e90565b91505092915050565b600082825260208201905092915050565b7f53696c76657220697320736f6c64206f757420616c7265616479210000000000600082015250565b6000610f19601b83610ed2565b9150610f2482610ee3565b602082019050919050565b60006020820190508181036000830152610f4881610f0c565b9050919050565b7f436f6e747261637420697320756e61626c6520746f207265616420436861696e60008201527f6c696e6b20707269636566656564732e00000000000000000000000000000000602082015250565b6000610fab603083610ed2565b9150610fb682610f4f565b604082019050919050565b60006020820190508181036000830152610fda81610f9e565b9050919050565b7f4d53472e56414c5545206d75737420626520657175616c20746f206765744c6160008201527f746573745f5745495f53696c7665725f50726963652829210000000000000000602082015250565b600061103d603883610ed2565b915061104882610fe1565b604082019050919050565b6000602082019050818103600083015261106c81611030565b9050919050565b7f4e487b7100000000000000000000000000000000000000000000000000000000600052601160045260246000fd5b60006110ad82610d8b565b91506110b883610d8b565b9250827fffffffffffffffffffffffffffffffffffffffffffffffffffffffffffffffff038211156110ed576110ec611073565b5b828201905092915050565b600060408201905061110d6000830185610d95565b61111a6020830184610d61565b9392505050565b600069ffffffffffffffffffff82169050919050565b61114081611121565b811461114b57600080fd5b50565b60008151905061115d81611137565b92915050565b60008151905061117281610e79565b92915050565b60008151905061118781610dc4565b92915050565b600080600080600060a086880312156111a9576111a8610dbf565b5b60006111b78882890161114e565b95505060206111c888828901611163565b94505060406111d988828901611178565b93505060606111ea88828901611178565b92505060806111fb8882890161114e565b9150509295509295909350565b600061121382610d57565b915061121e83610d57565b9250817f7fffffffffffffffffffffffffffffffffffffffffffffffffffffffffffffff0383136000831215161561125957611258611073565b5b817f800000000000000000000000000000000000000000000000000000000000000003831260008312161561129157611290611073565b5b828201905092915050565b7f4e487b7100000000000000000000000000000000000000000000000000000000600052601260045260246000fd5b60006112d682610d57565b91506112e183610d57565b9250826112f1576112f061129c565b5b600160000383147f80000000000000000000000000000000000000000000000000000000000000008314161561132a57611329611073565b5b828205905092915050565b600061134082610d57565b915061134b83610d57565b9250827f7fffffffffffffffffffffffffffffffffffffffffffffffffffffffffffffff048211600084136000841316161561138a57611389611073565b5b817f800000000000000000000000000000000000000000000000000000000000000005831260008412600084131616156113c7576113c6611073565b5b827f8000000000000000000000000000000000000000000000000000000000000000058212600084136000841216161561140457611403611073565b5b827f7fffffffffffffffffffffffffffffffffffffffffffffffffffffffffffffff058212600084126000841216161561144157611440611073565b5b828202905092915050565b7f476f6c6420697320736f6c64206f757420616c72656164792100000000000000600082015250565b6000611482601983610ed2565b915061148d8261144c565b602082019050919050565b600060208201905081810360008301526114b181611475565b9050919050565b7f4d53472e56414c5545206d75737420626520657175616c20746f206765744c6160008201527f746573745f5745495f476f6c645f507269636500000000000000000000000000602082015250565b6000611514603383610ed2565b915061151f826114b8565b604082019050919050565b6000602082019050818103600083015261154381611507565b9050919050565b7f4f6e6c7920636f6e7472616374206f776e657220286465706c6f79657229206360008201527f616e2061636365737320746869732066756e6374696f6e2e0000000000000000602082015250565b60006115a6603883610ed2565b91506115b18261154a565b604082019050919050565b600060208201905081810360008301526115d581611599565b9050919050565b7f496e7075742076616c756520697320616c7265616479207468652073616d652060008201527f6173205374617465210000000000000000000000000000000000000000000000602082015250565b6000611638602983610ed2565b9150611643826115dc565b604082019050919050565b600060208201905081810360008301526116678161162b565b9050919050565b7f496e707574206d757374206265206c657373207468616e203821210000000000600082015250565b60006116a4601b83610ed2565b91506116af8261166e565b602082019050919050565b600060208201905081810360008301526116d381611697565b9050919050565b7f4f696c20697320736f6c64206f757420616c7265616479210000000000000000600082015250565b6000611710601883610ed2565b915061171b826116da565b602082019050919050565b6000602082019050818103600083015261173f81611703565b9050919050565b7f4d53472e56414c5545206d75737420626520657175616c20746f206765744c6160008201527f746573745f5745495f4f696c5f50726963652829210000000000000000000000602082015250565b60006117a2603583610ed2565b91506117ad82611746565b604082019050919050565b600060208201905081810360008301526117d181611795565b9050919050565b7f496e7075742076616c756520697320616c7265616479207468652073616d652060008201527f6173205363616c655f4665652100000000000000000000000000000000000000602082015250565b6000611834602d83610ed2565b915061183f826117d8565b604082019050919050565b6000602082019050818103600083015261186381611827565b905091905056fea2646970667358221220f4edbd19e5f1a05fa6cbee6989f8cb94b3da5b0b800aa31a582ebe43262b664364736f6c63430008090033",
  "linkReferences": {},
  "deployedLinkReferences": {}
}